{"contracts/ShipmentLedger.sol":{"ShipmentLedger":{"abi":[{"anonymous":false,"inputs":[{"indexed":false,"internalType":"string","name":"trackingId","type":"string"},{"indexed":false,"internalType":"string","name":"productCategory","type":"string"},{"indexed":false,"internalType":"string","name":"origin","type":"string"},{"indexed":false,"internalType":"string","name":"destination","type":"string"},{"indexed":false,"internalType":"string","name":"status","type":"string"},{"indexed":false,"internalType":"uint256","name":"departureDate","type":"uint256"},{"indexed":false,"internalType":"uint256","name":"eta","type":"uint256"},{"indexed":false,"internalType":"uint256","name":"deliveryDate","type":"uint256"},{"indexed":false,"internalType":"address","name":"recordedBy","type":"address"}],"name":"ShipmentRecorded","type":"event"},{"inputs":[{"internalType":"string","name":"trackingId","type":"string"},{"internalType":"string","name":"productCategory","type":"string"},{"internalType":"string","name":"origin","type":"string"},{"internalType":"string","name":"destination","type":"string"},{"internalType":"string","name":"status","type":"string"},{"internalType":"uint256","name":"departureDate","type":"uint256"},{"internalType":"uint256","name":"eta","type":"uint256"},{"internalType":"uint256","name":"deliveryDate","type":"uint256"}],"name":"recordShipment","outputs":[],"stateMutability":"nonpayable","type":"function"}],"evm":{"bytecode":{"linkReferences":{},"object":"60808060405234601557610211908161001b8239f35b600080fdfe608080604052600436101561001357600080fd5b60003560e01c630baae8441461002857600080fd5b34610187576101003660031901126101875760043567ffffffffffffffff81116101875761005a90369060040161018c565b60249291923567ffffffffffffffff81116101875761007d90369060040161018c565b919060443567ffffffffffffffff81116101875761009f90369060040161018c565b93909560643567ffffffffffffffff8111610187576100c290369060040161018c565b6084359267ffffffffffffffff8411610187577fa865e080f96b0211b3303eeeb49784e996a041c011789b775cf7dcf9c51e802d9989986101398a986101209861012b610147966101639d61011e6101559c369060040161018c565b9d909e81815201916101ba565b8d810360208f0152916101ba565b918a830360408c01526101ba565b9187830360608901526101ba565b9184830360808601526101ba565b60a43560a083015260c43560c083015260e43560e0830152336101008301520390a1005b600080fd5b9181601f840112156101875782359167ffffffffffffffff8311610187576020838186019501011161018757565b908060209392818452848401376000828201840152601f01601f191601019056fea2646970667358221220d03e83232d15b9d8d275ff31f42bbc5a757074e7d298e2c65fb374353b4447e364736f6c634300081c0033","opcodes":"PUSH1 0x80 DUP1 PUSH1 0x40 MSTORE CALLVALUE PUSH1 0x15 JUMPI PUSH2 0x211 SWAP1 DUP2 PUSH2 0x1B DUP3 CODECOPY RETURN JUMPDEST PUSH1 0x0 DUP1 REVERT INVALID PUSH1 0x80 DUP1 PUSH1 0x40 MSTORE PUSH1 0x4 CALLDATASIZE LT ISZERO PUSH2 0x13 JUMPI PUSH1 0x0 DUP1 REVERT JUMPDEST PUSH1 0x0 CALLDATALOAD PUSH1 0xE0 SHR PUSH4 0xBAAE844 EQ PUSH2 0x28 JUMPI PUSH1 0x0 DUP1 REVERT JUMPDEST CALLVALUE PUSH2 0x187 JUMPI PUSH2 0x100 CALLDATASIZE PUSH1 0x3 NOT ADD SLT PUSH2 0x187 JUMPI PUSH1 0x4 CALLDATALOAD PUSH8 0xFFFFFFFFFFFFFFFF DUP2 GT PUSH2 0x187 JUMPI PUSH2 0x5A SWAP1 CALLDATASIZE SWAP1 PUSH1 0x4 ADD PUSH2 0x18C JUMP JUMPDEST PUSH1 0x24 SWAP3 SWAP2 SWAP3 CALLDATALOAD PUSH8 0xFFFFFFFFFFFFFFFF DUP2 GT PUSH2 0x187 JUMPI PUSH2 0x7D SWAP1 CALLDATASIZE SWAP1 PUSH1 0x4 ADD PUSH2 0x18C JUMP JUMPDEST SWAP2 SWAP1 PUSH1 0x44 CALLDATALOAD PUSH8 0xFFFFFFFFFFFFFFFF DUP2 GT PUSH2 0x187 JUMPI PUSH2 0x9F SWAP1 CALLDATASIZE SWAP1 PUSH1 0x4 ADD PUSH2 0x18C JUMP JUMPDEST SWAP4 SWAP1 SWAP6 PUSH1 0x64 CALLDATALOAD PUSH8 0xFFFFFFFFFFFFFFFF DUP2 GT PUSH2 0x187 JUMPI PUSH2 0xC2 SWAP1 CALLDATASIZE SWAP1 PUSH1 0x4 ADD PUSH2 0x18C JUMP JUMPDEST PUSH1 0x84 CALLDATALOAD SWAP3 PUSH8 0xFFFFFFFFFFFFFFFF DUP5 GT PUSH2 0x187 JUMPI PUSH32 0xA865E080F96B0211B3303EEEB49784E996A041C011789B775CF7DCF9C51E802D SWAP10 DUP10 SWAP9 PUSH2 0x139 DUP11 SWAP9 PUSH2 0x120 SWAP9 PUSH2 0x12B PUSH2 0x147 SWAP7 PUSH2 0x163 SWAP14 PUSH2 0x11E PUSH2 0x155 SWAP13 CALLDATASIZE SWAP1 PUSH1 0x4 ADD PUSH2 0x18C JUMP JUMPDEST SWAP14 SWAP1 SWAP15 DUP2 DUP2 MSTORE ADD SWAP2 PUSH2 0x1BA JUMP JUMPDEST DUP14 DUP2 SUB PUSH1 0x20 DUP16 ADD MSTORE SWAP2 PUSH2 0x1BA JUMP JUMPDEST SWAP2 DUP11 DUP4 SUB PUSH1 0x40 DUP13 ADD MSTORE PUSH2 0x1BA JUMP JUMPDEST SWAP2 DUP8 DUP4 SUB PUSH1 0x60 DUP10 ADD MSTORE PUSH2 0x1BA JUMP JUMPDEST SWAP2 DUP5 DUP4 SUB PUSH1 0x80 DUP7 ADD MSTORE PUSH2 0x1BA JUMP JUMPDEST PUSH1 0xA4 CALLDATALOAD PUSH1 0xA0 DUP4 ADD MSTORE PUSH1 0xC4 CALLDATALOAD PUSH1 0xC0 DUP4 ADD MSTORE PUSH1 0xE4 CALLDATALOAD PUSH1 0xE0 DUP4 ADD MSTORE CALLER PUSH2 0x100 DUP4 ADD MSTORE SUB SWAP1 LOG1 STOP JUMPDEST PUSH1 0x0 DUP1 REVERT JUMPDEST SWAP2 DUP2 PUSH1 0x1F DUP5 ADD SLT ISZERO PUSH2 0x187 JUMPI DUP3 CALLDATALOAD SWAP2 PUSH8 0xFFFFFFFFFFFFFFFF DUP4 GT PUSH2 0x187 JUMPI PUSH1 0x20 DUP4 DUP2 DUP7 ADD SWAP6 ADD ADD GT PUSH2 0x187 JUMPI JUMP JUMPDEST SWAP1 DUP1 PUSH1 0x20 SWAP4 SWAP3 DUP2 DUP5 MSTORE DUP5 DUP5 ADD CALLDATACOPY PUSH1 0x0 DUP3 DUP3 ADD DUP5 ADD MSTORE PUSH1 0x1F ADD PUSH1 0x1F NOT AND ADD ADD SWAP1 JUMP INVALID LOG2 PUSH5 0x6970667358 0x22 SLT KECCAK256 0xD0 RETURNDATACOPY DUP4 0x23 0x2D ISZERO 0xB9 0xD8 0xD2 PUSH22 0xFF31F42BBC5A757074E7D298E2C65FB374353B4447E3 PUSH5 0x736F6C6343 STOP ADDMOD SHR STOP CALLER "},"methodIdentifiers":{"recordShipment(string,string,string,string,string,uint256,uint256,uint256)":"0baae844"}}}}}